{
  "transactions": [
    {
      "hash": "0xbea19dd74adbbdf338bb6761b0781cd7230df299990fdb2fafae4d41af49a3fb",
      "transactionType": "CALL",
      "contractName": null,
      "contractAddress": "0x498f316fEB85a250fdC64B859a130515491EC888",
      "function": "createUniV3Oracle((address,bool,uint32,((address,address),(address,uint32))[]))",
      "arguments": [
        "(0x0000000000000000000000000000000000000000, false, 1800, [((0x82aF49447D8a07e3bd95BD0d56f35241523fBab1, 0xFF970A61A04b1cA14834A43f5dE4533eBDDB5CC8), (0xC31E54c7a869B9FcBEcc14363CF510d1c41fa443, 0)), ((0x82aF49447D8a07e3bd95BD0d56f35241523fBab1, 0xaf88d065e77c8cC2239327C5EDb3A432268e5831), (0xC6962004f452bE9203591991D15f6b388e09E8D0, 0)), ((0x82aF49447D8a07e3bd95BD0d56f35241523fBab1, 0xfc5A1A6EB076a2C7aD06eD22C90d7E710E35ad0a), (0x80A9ae39310abf666A87C743d6ebBD0E8C42158E, 0)), ((0x82aF49447D8a07e3bd95BD0d56f35241523fBab1, 0x2f2a2543B76A4166549F7aaB2e75Bef0aefC5B0f), (0x2f5e87C9312fa29aed5c179E456625D79015299c, 0)), ((0x82aF49447D8a07e3bd95BD0d56f35241523fBab1, 0x912CE59144191C1204E64559FE8253a0e49E6548), (0xC6F780497A95e246EB9449f5e4770916DCd6396A, 0)), ((0x82aF49447D8a07e3bd95BD0d56f35241523fBab1, 0xFd086bC7CD5C481DCC9C85ebE478A1C0b69FCbb9), (0x641C00A822e8b671738d32a431a4Fb6074E5c79d, 0)), ((0x82aF49447D8a07e3bd95BD0d56f35241523fBab1, 0x5979D7b546E38E414F7E9822514be443A4800529), (0x35218a1cbaC5Bbc3E57fd9Bd38219D37571b3537, 0)), ((0xaf88d065e77c8cC2239327C5EDb3A432268e5831, 0xDA10009cBd5D07dd0CeCc66161FC93D7c9000da1), (0x7CF803e8d82A50504180f417B8bC7a493C0a0503, 0)), ((0xaf88d065e77c8cC2239327C5EDb3A432268e5831, 0xFd086bC7CD5C481DCC9C85ebE478A1C0b69FCbb9), (0xbE3aD6a5669Dc0B8b12FeBC03608860C31E2eef6, 0)), ((0x82aF49447D8a07e3bd95BD0d56f35241523fBab1, 0xf97f4df75117a78c1A5a0DBb814Af92458539FB4), (0x468b88941e7Cc0B88c1869d68ab6b570bCEF62Ff, 0)), ((0x82aF49447D8a07e3bd95BD0d56f35241523fBab1, 0x0c880f6761F1af8d9Aa9C466984b80DAb9a8c9e8), (0xdbaeB7f0DFe3a0AAFD798CCECB5b22E708f7852c, 0)), ((0x82aF49447D8a07e3bd95BD0d56f35241523fBab1, 0x3082CC23568eA640225c2467653dB90e9250AaA0), (0x446BF9748B4eA044dd759d9B9311C70491dF8F29, 0))])"
      ],
      "transaction": {
        "type": "0x02",
        "from": "0x8cc55811d2610ece1997658bef35b290e55c9186",
        "to": "0x498f316feb85a250fdc64b859a130515491ec888",
        "gas": "0x351deb",
        "value": "0x0",
        "data": "0xdd3ff6e000000000000000000000000000000000000000000000000000000000000000200000000000000000000000000000000000000000000000000000000000000000000000000000000000000000000000000000000000000000000000000000000000000000000000000000000000000000000000000000000000000000000007080000000000000000000000000000000000000000000000000000000000000080000000000000000000000000000000000000000000000000000000000000000c00000000000000000000000082af49447d8a07e3bd95bd0d56f35241523fbab1000000000000000000000000ff970a61a04b1ca14834a43f5de4533ebddb5cc8000000000000000000000000c31e54c7a869b9fcbecc14363cf510d1c41fa443000000000000000000000000000000000000000000000000000000000000000000000000000000000000000082af49447d8a07e3bd95bd0d56f35241523fbab1000000000000000000000000af88d065e77c8cc2239327c5edb3a432268e5831000000000000000000000000c6962004f452be9203591991d15f6b388e09e8d0000000000000000000000000000000000000000000000000000000000000000000000000000000000000000082af49447d8a07e3bd95bd0d56f35241523fbab1000000000000000000000000fc5a1a6eb076a2c7ad06ed22c90d7e710e35ad0a00000000000000000000000080a9ae39310abf666a87c743d6ebbd0e8c42158e000000000000000000000000000000000000000000000000000000000000000000000000000000000000000082af49447d8a07e3bd95bd0d56f35241523fbab10000000000000000000000002f2a2543b76a4166549f7aab2e75bef0aefc5b0f0000000000000000000000002f5e87c9312fa29aed5c179e456625d79015299c000000000000000000000000000000000000000000000000000000000000000000000000000000000000000082af49447d8a07e3bd95bd0d56f35241523fbab1000000000000000000000000912ce59144191c1204e64559fe8253a0e49e6548000000000000000000000000c6f780497a95e246eb9449f5e4770916dcd6396a000000000000000000000000000000000000000000000000000000000000000000000000000000000000000082af49447d8a07e3bd95bd0d56f35241523fbab1000000000000000000000000fd086bc7cd5c481dcc9c85ebe478a1c0b69fcbb9000000000000000000000000641c00a822e8b671738d32a431a4fb6074e5c79d000000000000000000000000000000000000000000000000000000000000000000000000000000000000000082af49447d8a07e3bd95bd0d56f35241523fbab10000000000000000000000005979d7b546e38e414f7e9822514be443a480052900000000000000000000000035218a1cbac5bbc3e57fd9bd38219d37571b35370000000000000000000000000000000000000000000000000000000000000000000000000000000000000000af88d065e77c8cc2239327c5edb3a432268e5831000000000000000000000000da10009cbd5d07dd0cecc66161fc93d7c9000da10000000000000000000000007cf803e8d82a50504180f417b8bc7a493c0a05030000000000000000000000000000000000000000000000000000000000000000000000000000000000000000af88d065e77c8cc2239327c5edb3a432268e5831000000000000000000000000fd086bc7cd5c481dcc9c85ebe478a1c0b69fcbb9000000000000000000000000be3ad6a5669dc0b8b12febc03608860c31e2eef6000000000000000000000000000000000000000000000000000000000000000000000000000000000000000082af49447d8a07e3bd95bd0d56f35241523fbab1000000000000000000000000f97f4df75117a78c1a5a0dbb814af92458539fb4000000000000000000000000468b88941e7cc0b88c1869d68ab6b570bcef62ff000000000000000000000000000000000000000000000000000000000000000000000000000000000000000082af49447d8a07e3bd95bd0d56f35241523fbab10000000000000000000000000c880f6761f1af8d9aa9c466984b80dab9a8c9e8000000000000000000000000dbaeb7f0dfe3a0aafd798ccecb5b22e708f7852c000000000000000000000000000000000000000000000000000000000000000000000000000000000000000082af49447d8a07e3bd95bd0d56f35241523fbab10000000000000000000000003082cc23568ea640225c2467653db90e9250aaa0000000000000000000000000446bf9748b4ea044dd759d9b9311c70491df8f290000000000000000000000000000000000000000000000000000000000000000",
        "nonce": "0x1",
        "accessList": []
      },
      "additionalContracts": [
        {
          "transactionType": "CREATE",
          "address": "0x8DeF6ed1f27A02b26024C78aDcE2957d23DFD672",
          "initCode": "0x602c3d8160093d39f33d3d3d3d363d3d37363d736e65c4be1dcd33bdddd99f42dc45b2658fe9ad915af43d3d93803e602a57fd5bf3"
        }
      ],
      "isFixedGasLimit": false
    }
  ],
  "receipts": [
    {
      "transactionHash": "0xbea19dd74adbbdf338bb6761b0781cd7230df299990fdb2fafae4d41af49a3fb",
      "transactionIndex": "0x3",
      "blockHash": "0x53a857a7581a9fe7cfc86e53ff4c872ebd982652cd5724882a3435bf11c14edf",
      "blockNumber": "0xa8c3ea7",
      "from": "0x8cC55811d2610ece1997658Bef35B290e55c9186",
      "to": "0x498f316fEB85a250fdC64B859a130515491EC888",
      "cumulativeGasUsed": "0x31b709",
      "gasUsed": "0x247a32",
      "contractAddress": null,
      "logs": [
        {
          "address": "0x8DeF6ed1f27A02b26024C78aDcE2957d23DFD672",
          "topics": [
            "0x8be0079c531659141344cd1fd0a4f28419497f9722a3daafe3b4186f6b6457e0",
            "0x0000000000000000000000000000000000000000000000000000000000000000",
            "0x0000000000000000000000000000000000000000000000000000000000000000"
          ],
          "data": "0x",
          "blockHash": "0x53a857a7581a9fe7cfc86e53ff4c872ebd982652cd5724882a3435bf11c14edf",
          "blockNumber": "0xa8c3ea7",
          "transactionHash": "0xbea19dd74adbbdf338bb6761b0781cd7230df299990fdb2fafae4d41af49a3fb",
          "transactionIndex": "0x3",
          "logIndex": "0x3",
          "removed": false
        },
        {
          "address": "0x498f316fEB85a250fdC64B859a130515491EC888",
          "topics": [
            "0x6ab60cca05d81b8aa58b9480c65308d33e6f8d77f7738c3162f79e06b716a372",
            "0x0000000000000000000000008def6ed1f27a02b26024c78adce2957d23dfd672"
          ],
          "data": "0x00000000000000000000000000000000000000000000000000000000000000200000000000000000000000000000000000000000000000000000000000000000000000000000000000000000000000000000000000000000000000000000000000000000000000000000000000000000000000000000000000000000000007080000000000000000000000000000000000000000000000000000000000000080000000000000000000000000000000000000000000000000000000000000000c00000000000000000000000082af49447d8a07e3bd95bd0d56f35241523fbab1000000000000000000000000ff970a61a04b1ca14834a43f5de4533ebddb5cc8000000000000000000000000c31e54c7a869b9fcbecc14363cf510d1c41fa443000000000000000000000000000000000000000000000000000000000000000000000000000000000000000082af49447d8a07e3bd95bd0d56f35241523fbab1000000000000000000000000af88d065e77c8cc2239327c5edb3a432268e5831000000000000000000000000c6962004f452be9203591991d15f6b388e09e8d0000000000000000000000000000000000000000000000000000000000000000000000000000000000000000082af49447d8a07e3bd95bd0d56f35241523fbab1000000000000000000000000fc5a1a6eb076a2c7ad06ed22c90d7e710e35ad0a00000000000000000000000080a9ae39310abf666a87c743d6ebbd0e8c42158e000000000000000000000000000000000000000000000000000000000000000000000000000000000000000082af49447d8a07e3bd95bd0d56f35241523fbab10000000000000000000000002f2a2543b76a4166549f7aab2e75bef0aefc5b0f0000000000000000000000002f5e87c9312fa29aed5c179e456625d79015299c000000000000000000000000000000000000000000000000000000000000000000000000000000000000000082af49447d8a07e3bd95bd0d56f35241523fbab1000000000000000000000000912ce59144191c1204e64559fe8253a0e49e6548000000000000000000000000c6f780497a95e246eb9449f5e4770916dcd6396a000000000000000000000000000000000000000000000000000000000000000000000000000000000000000082af49447d8a07e3bd95bd0d56f35241523fbab1000000000000000000000000fd086bc7cd5c481dcc9c85ebe478a1c0b69fcbb9000000000000000000000000641c00a822e8b671738d32a431a4fb6074e5c79d000000000000000000000000000000000000000000000000000000000000000000000000000000000000000082af49447d8a07e3bd95bd0d56f35241523fbab10000000000000000000000005979d7b546e38e414f7e9822514be443a480052900000000000000000000000035218a1cbac5bbc3e57fd9bd38219d37571b35370000000000000000000000000000000000000000000000000000000000000000000000000000000000000000af88d065e77c8cc2239327c5edb3a432268e5831000000000000000000000000da10009cbd5d07dd0cecc66161fc93d7c9000da10000000000000000000000007cf803e8d82a50504180f417b8bc7a493c0a05030000000000000000000000000000000000000000000000000000000000000000000000000000000000000000af88d065e77c8cc2239327c5edb3a432268e5831000000000000000000000000fd086bc7cd5c481dcc9c85ebe478a1c0b69fcbb9000000000000000000000000be3ad6a5669dc0b8b12febc03608860c31e2eef6000000000000000000000000000000000000000000000000000000000000000000000000000000000000000082af49447d8a07e3bd95bd0d56f35241523fbab1000000000000000000000000f97f4df75117a78c1a5a0dbb814af92458539fb4000000000000000000000000468b88941e7cc0b88c1869d68ab6b570bcef62ff000000000000000000000000000000000000000000000000000000000000000000000000000000000000000082af49447d8a07e3bd95bd0d56f35241523fbab10000000000000000000000000c880f6761f1af8d9aa9c466984b80dab9a8c9e8000000000000000000000000dbaeb7f0dfe3a0aafd798ccecb5b22e708f7852c000000000000000000000000000000000000000000000000000000000000000000000000000000000000000082af49447d8a07e3bd95bd0d56f35241523fbab10000000000000000000000003082cc23568ea640225c2467653db90e9250aaa0000000000000000000000000446bf9748b4ea044dd759d9b9311c70491df8f290000000000000000000000000000000000000000000000000000000000000000",
          "blockHash": "0x53a857a7581a9fe7cfc86e53ff4c872ebd982652cd5724882a3435bf11c14edf",
          "blockNumber": "0xa8c3ea7",
          "transactionHash": "0xbea19dd74adbbdf338bb6761b0781cd7230df299990fdb2fafae4d41af49a3fb",
          "transactionIndex": "0x3",
          "logIndex": "0x4",
          "removed": false
        }
      ],
      "status": "0x1",
      "logsBloom": "0x00000002000000000002008000000000000000001000000000800000000000000100000000000000000000000000000000000000000000000000000000000000000000000200000000000000000000000001000000000000000000000010000000000000020000000000000000000800000000020000040000000000000000400000000000000000000000000000000000000000000000000000000000000000000000000000000000000000000000002000000000000000000000000000000000000000000000000000040000000000000000000000000000000000000020000000000000000000000000000000000000000000000000000000008000000000",
      "type": "0x2",
      "effectiveGasPrice": "0x5f5e100"
    }
  ],
  "libraries": [],
  "pending": [],
  "returns": {
    "defaultOracle": {
      "internal_type": "contract UniV3OracleL2Impl",
      "value": "0x8DeF6ed1f27A02b26024C78aDcE2957d23DFD672"
    }
  },
  "timestamp": 1706945125,
  "chain": 42161,
  "multi": false,
  "commit": "243afc2"
}