{
  "transactions": [
    {
      "hash": "0xbc79511d406592dd371b2ceaffac850aee013ad35839885f8dca35ecb0845244",
      "transactionType": "CALL",
      "contractName": "ChainlinkOracleL2Factory",
      "contractAddress": "0xD28182C2E11519ad081E7fa9da711274b7096098",
      "function": "createOracle(bytes,bytes32)",
      "arguments": [
        "0x0000000000000000000000000000000000000000000000000000000000000020000000000000000000000000000000000000000000000000000000000000000000000000000000000000000000000000000000000000000000000000000000000000000000000000000000000000000000000000000000000000000000000060000000000000000000000000000000000000000000000000000000000000000600000000000000000000000000000000000000000000000000000000000000c000000000000000000000000000000000000000000000000000000000000001c000000000000000000000000000000000000000000000000000000000000002c000000000000000000000000000000000000000000000000000000000000003a000000000000000000000000000000000000000000000000000000000000004a000000000000000000000000000000000000000000000000000000000000005a0000000000000000000000000420000000000000000000000000000000000000600000000000000000000000050c5725949a6f0c72e6c4a641f24049a917db0cb000000000000000000000000000000000000000000000000000000000000006000000000000000000000000000000000000000000000000000000000000000400000000000000000000000000000000000000000000000000000000000000000000000000000000000000000000000000000000000000000000000000000003271041dddad3595f9ced3dccfbe3d1f4b0a16bb700004b00801591e79239a7d679378ec8c847e5038150364c78f015180080000000000000000000000000000000000000000000000000000004200000000000000000000000000000000000006000000000000000000000000833589fcd6edb6e08f4c7c32d4f71b54bda02913000000000000000000000000000000000000000000000000000000000000006000000000000000000000000000000000000000000000000000000000000000400000000000000000000000000000000000000000000000000000000000000000000000000000000000000000000000000000000000000000000000000000003271041dddad3595f9ced3dccfbe3d1f4b0a16bb700004b008017e860098f58bbfc8648a4311b374b1d669a2bc6b015180080000000000000000000000000000000000000000000000000000002ae3f1ec7f1f5012cfeab0185bfc7aa3cf0dec2200000000000000000000000042000000000000000000000000000000000000060000000000000000000000000000000000000000000000000000000000000060000000000000000000000000000000000000000000000000000000000000004000000000000000000000000000000000000000000000000000000000000000000000000000000000000000000000000000000000000000000000000000000019806b4ac04501c29769051e42783cf04dce41440b01518012010000000000000000000000000000000000000050c5725949a6f0c72e6c4a641f24049a917db0cb000000000000000000000000833589fcd6edb6e08f4c7c32d4f71b54bda029130000000000000000000000000000000000000000000000000000000000000060000000000000000000000000000000000000000000000000000000000000004000000000000000000000000000000000000000000000000000000000000000000000000000000000000000000000000000000000000000000000000000000032591e79239a7d679378ec8c847e5038150364c78f01518008017e860098f58bbfc8648a4311b374b1d669a2bc6b0151800800000000000000000000000000000000000000000000000000000050c5725949a6f0c72e6c4a641f24049a917db0cb0000000000000000000000002ae3f1ec7f1f5012cfeab0185bfc7aa3cf0dec220000000000000000000000000000000000000000000000000000000000000060000000000000000000000000000000000000000000000000000000000000004000000000000000000000000000000000000000000000000000000000000000000000000000000000000000000000000000000000000000000000000000000032591e79239a7d679378ec8c847e5038150364c78f0151800801d7818272b9e248357d13057aab0b417af31e817d0004b008000000000000000000000000000000000000000000000000000000833589fcd6edb6e08f4c7c32d4f71b54bda029130000000000000000000000002ae3f1ec7f1f5012cfeab0185bfc7aa3cf0dec2200000000000000000000000000000000000000000000000000000000000000600000000000000000000000000000000000000000000000000000000000000040000000000000000000000000000000000000000000000000000000000000000000000000000000000000000000000000000000000000000000000000000000327e860098f58bbfc8648a4311b374b1d669a2bc6b0151800801d7818272b9e248357d13057aab0b417af31e817d0004b008000000000000000000000000000000",
        "0x0000000000000000000000000000000000000000000000000000000000000000"
      ],
      "transaction": {
        "type": "0x02",
        "from": "0x3aad7a3e59e478bb4c76a4813de5f4107b3d61bd",
        "to": "0xd28182c2e11519ad081e7fa9da711274b7096098",
        "gas": "0x166eb8",
        "value": "0x0",
        "data": "0x6bbe77b80000000000000000000000000000000000000000000000000000000000000040000000000000000000000000000000000000000000000000000000000000000000000000000000000000000000000000000000000000000000000000000007400000000000000000000000000000000000000000000000000000000000000020000000000000000000000000000000000000000000000000000000000000000000000000000000000000000000000000000000000000000000000000000000000000000000000000000000000000000000000000000000000000000000000060000000000000000000000000000000000000000000000000000000000000000600000000000000000000000000000000000000000000000000000000000000c000000000000000000000000000000000000000000000000000000000000001c000000000000000000000000000000000000000000000000000000000000002c000000000000000000000000000000000000000000000000000000000000003a000000000000000000000000000000000000000000000000000000000000004a000000000000000000000000000000000000000000000000000000000000005a0000000000000000000000000420000000000000000000000000000000000000600000000000000000000000050c5725949a6f0c72e6c4a641f24049a917db0cb000000000000000000000000000000000000000000000000000000000000006000000000000000000000000000000000000000000000000000000000000000400000000000000000000000000000000000000000000000000000000000000000000000000000000000000000000000000000000000000000000000000000003271041dddad3595f9ced3dccfbe3d1f4b0a16bb700004b00801591e79239a7d679378ec8c847e5038150364c78f015180080000000000000000000000000000000000000000000000000000004200000000000000000000000000000000000006000000000000000000000000833589fcd6edb6e08f4c7c32d4f71b54bda02913000000000000000000000000000000000000000000000000000000000000006000000000000000000000000000000000000000000000000000000000000000400000000000000000000000000000000000000000000000000000000000000000000000000000000000000000000000000000000000000000000000000000003271041dddad3595f9ced3dccfbe3d1f4b0a16bb700004b008017e860098f58bbfc8648a4311b374b1d669a2bc6b015180080000000000000000000000000000000000000000000000000000002ae3f1ec7f1f5012cfeab0185bfc7aa3cf0dec2200000000000000000000000042000000000000000000000000000000000000060000000000000000000000000000000000000000000000000000000000000060000000000000000000000000000000000000000000000000000000000000004000000000000000000000000000000000000000000000000000000000000000000000000000000000000000000000000000000000000000000000000000000019806b4ac04501c29769051e42783cf04dce41440b01518012010000000000000000000000000000000000000050c5725949a6f0c72e6c4a641f24049a917db0cb000000000000000000000000833589fcd6edb6e08f4c7c32d4f71b54bda029130000000000000000000000000000000000000000000000000000000000000060000000000000000000000000000000000000000000000000000000000000004000000000000000000000000000000000000000000000000000000000000000000000000000000000000000000000000000000000000000000000000000000032591e79239a7d679378ec8c847e5038150364c78f01518008017e860098f58bbfc8648a4311b374b1d669a2bc6b0151800800000000000000000000000000000000000000000000000000000050c5725949a6f0c72e6c4a641f24049a917db0cb0000000000000000000000002ae3f1ec7f1f5012cfeab0185bfc7aa3cf0dec220000000000000000000000000000000000000000000000000000000000000060000000000000000000000000000000000000000000000000000000000000004000000000000000000000000000000000000000000000000000000000000000000000000000000000000000000000000000000000000000000000000000000032591e79239a7d679378ec8c847e5038150364c78f0151800801d7818272b9e248357d13057aab0b417af31e817d0004b008000000000000000000000000000000000000000000000000000000833589fcd6edb6e08f4c7c32d4f71b54bda029130000000000000000000000002ae3f1ec7f1f5012cfeab0185bfc7aa3cf0dec2200000000000000000000000000000000000000000000000000000000000000600000000000000000000000000000000000000000000000000000000000000040000000000000000000000000000000000000000000000000000000000000000000000000000000000000000000000000000000000000000000000000000000327e860098f58bbfc8648a4311b374b1d669a2bc6b0151800801d7818272b9e248357d13057aab0b417af31e817d0004b008000000000000000000000000000000",
        "nonce": "0x1",
        "accessList": []
      },
      "additionalContracts": [
        {
          "transactionType": "CREATE2",
          "address": "0x750d89198220a8E4aED26e3C0a44706269cc28b7",
          "initCode": "0x602c3d8160093d39f33d3d3d3d363d3d37363d7300f317a2a57b255ca81f9bd56d2521c81850e2eb5af43d3d93803e602a57fd5bf3"
        }
      ],
      "isFixedGasLimit": false
    }
  ],
  "receipts": [
    {
      "transactionHash": "0xbc79511d406592dd371b2ceaffac850aee013ad35839885f8dca35ecb0845244",
      "transactionIndex": "0x8",
      "blockHash": "0x6d070d02ce83e6b9c1fe0db4de36f887a821d2e01b99db2636c15ab64fbe00a4",
      "blockNumber": "0x76c984",
      "from": "0x3aad7A3E59e478BB4C76a4813De5F4107b3D61bD",
      "to": "0xD28182C2E11519ad081E7fa9da711274b7096098",
      "cumulativeGasUsed": "0x2b1626",
      "gasUsed": "0x103da0",
      "contractAddress": null,
      "logs": [
        {
          "address": "0x750d89198220a8E4aED26e3C0a44706269cc28b7",
          "topics": [
            "0x8be0079c531659141344cd1fd0a4f28419497f9722a3daafe3b4186f6b6457e0",
            "0x0000000000000000000000000000000000000000000000000000000000000000",
            "0x0000000000000000000000000000000000000000000000000000000000000000"
          ],
          "data": "0x",
          "blockHash": "0x6d070d02ce83e6b9c1fe0db4de36f887a821d2e01b99db2636c15ab64fbe00a4",
          "blockNumber": "0x76c984",
          "transactionHash": "0xbc79511d406592dd371b2ceaffac850aee013ad35839885f8dca35ecb0845244",
          "transactionIndex": "0x8",
          "logIndex": "0x29",
          "removed": false
        },
        {
          "address": "0xD28182C2E11519ad081E7fa9da711274b7096098",
          "topics": [
            "0x160e83d09a362bb35a8f711d3369d55314a9c0d57743e37d2539794ab80b0335",
            "0x000000000000000000000000750d89198220a8e4aed26e3c0a44706269cc28b7"
          ],
          "data": "0x0000000000000000000000000000000000000000000000000000000000000020000000000000000000000000000000000000000000000000000000000000000000000000000000000000000000000000000000000000000000000000000000000000000000000000000000000000000000000000000000000000000000000060000000000000000000000000000000000000000000000000000000000000000600000000000000000000000000000000000000000000000000000000000000c000000000000000000000000000000000000000000000000000000000000001c000000000000000000000000000000000000000000000000000000000000002c000000000000000000000000000000000000000000000000000000000000003a000000000000000000000000000000000000000000000000000000000000004a000000000000000000000000000000000000000000000000000000000000005a0000000000000000000000000420000000000000000000000000000000000000600000000000000000000000050c5725949a6f0c72e6c4a641f24049a917db0cb000000000000000000000000000000000000000000000000000000000000006000000000000000000000000000000000000000000000000000000000000000400000000000000000000000000000000000000000000000000000000000000000000000000000000000000000000000000000000000000000000000000000003271041dddad3595f9ced3dccfbe3d1f4b0a16bb700004b00801591e79239a7d679378ec8c847e5038150364c78f015180080000000000000000000000000000000000000000000000000000004200000000000000000000000000000000000006000000000000000000000000833589fcd6edb6e08f4c7c32d4f71b54bda02913000000000000000000000000000000000000000000000000000000000000006000000000000000000000000000000000000000000000000000000000000000400000000000000000000000000000000000000000000000000000000000000000000000000000000000000000000000000000000000000000000000000000003271041dddad3595f9ced3dccfbe3d1f4b0a16bb700004b008017e860098f58bbfc8648a4311b374b1d669a2bc6b015180080000000000000000000000000000000000000000000000000000002ae3f1ec7f1f5012cfeab0185bfc7aa3cf0dec2200000000000000000000000042000000000000000000000000000000000000060000000000000000000000000000000000000000000000000000000000000060000000000000000000000000000000000000000000000000000000000000004000000000000000000000000000000000000000000000000000000000000000000000000000000000000000000000000000000000000000000000000000000019806b4ac04501c29769051e42783cf04dce41440b01518012010000000000000000000000000000000000000050c5725949a6f0c72e6c4a641f24049a917db0cb000000000000000000000000833589fcd6edb6e08f4c7c32d4f71b54bda029130000000000000000000000000000000000000000000000000000000000000060000000000000000000000000000000000000000000000000000000000000004000000000000000000000000000000000000000000000000000000000000000000000000000000000000000000000000000000000000000000000000000000032591e79239a7d679378ec8c847e5038150364c78f01518008017e860098f58bbfc8648a4311b374b1d669a2bc6b0151800800000000000000000000000000000000000000000000000000000050c5725949a6f0c72e6c4a641f24049a917db0cb0000000000000000000000002ae3f1ec7f1f5012cfeab0185bfc7aa3cf0dec220000000000000000000000000000000000000000000000000000000000000060000000000000000000000000000000000000000000000000000000000000004000000000000000000000000000000000000000000000000000000000000000000000000000000000000000000000000000000000000000000000000000000032591e79239a7d679378ec8c847e5038150364c78f0151800801d7818272b9e248357d13057aab0b417af31e817d0004b008000000000000000000000000000000000000000000000000000000833589fcd6edb6e08f4c7c32d4f71b54bda029130000000000000000000000002ae3f1ec7f1f5012cfeab0185bfc7aa3cf0dec2200000000000000000000000000000000000000000000000000000000000000600000000000000000000000000000000000000000000000000000000000000040000000000000000000000000000000000000000000000000000000000000000000000000000000000000000000000000000000000000000000000000000000327e860098f58bbfc8648a4311b374b1d669a2bc6b0151800801d7818272b9e248357d13057aab0b417af31e817d0004b008000000000000000000000000000000",
          "blockHash": "0x6d070d02ce83e6b9c1fe0db4de36f887a821d2e01b99db2636c15ab64fbe00a4",
          "blockNumber": "0x76c984",
          "transactionHash": "0xbc79511d406592dd371b2ceaffac850aee013ad35839885f8dca35ecb0845244",
          "transactionIndex": "0x8",
          "logIndex": "0x2a",
          "removed": false
        }
      ],
      "status": "0x1",
      "logsBloom": "0x0000000000000000000080000000000000000000000000000080000000000000000000000000000000000000000000000000000000000000200000000000000000000010000000000000000a000010000001000000000000000000000000000000000040020000000000000000000800000000000000000000000000000000400000000000000010000000000000000000000000000000000000000000000000000000000000000000000000000000000000000000000000000000000000000000000000000000000000000000000000010000000000000002000800000020000000000000000000000000000000000000000000000000000000000000000010",
      "type": "0x2",
      "effectiveGasPrice": "0xc8"
    }
  ],
  "libraries": [],
  "pending": [],
  "returns": {
    "defaultOracle": {
      "internal_type": "contract ChainlinkOracleL2Impl",
      "value": "0x750d89198220a8E4aED26e3C0a44706269cc28b7"
    }
  },
  "timestamp": 1702359024,
  "chain": 8453,
  "multi": false,
  "commit": "d186d74"
}