{
  "transactions": [
    {
      "hash": "0x3e649864bfa69c85894f079e58a78aece194228768a730b6c0bde9b100430178",
      "transactionType": "CALL",
      "contractName": "UniV3OracleL2Factory",
      "contractAddress": "0x074827E8bD77B0A66c6008a51AF9BD1F33105caf",
      "function": "createUniV3Oracle((address,bool,uint32,((address,address),(address,uint32))[]))",
      "arguments": [
        "(0x0000000000000000000000000000000000000000, false, 1800, [((0x4200000000000000000000000000000000000006, 0x833589fCD6eDb6E08f4c7C32D4f71b54bdA02913), (0xd0b53D9277642d899DF5C87A3966A349A798F224, 0)), ((0x4200000000000000000000000000000000000006, 0xd9aAEc86B65D86f6A7B5B1b0c42FFA531710b6CA), (0x4C36388bE6F416A29C8d8Eee81C771cE6bE14B18, 0))])"
      ],
      "transaction": {
        "type": "0x02",
        "from": "0x8cc55811d2610ece1997658bef35b290e55c9186",
        "to": "0x074827e8bd77b0a66c6008a51af9bd1f33105caf",
        "gas": "0x357e3",
        "value": "0x0",
        "data": "0xdd3ff6e00000000000000000000000000000000000000000000000000000000000000020000000000000000000000000000000000000000000000000000000000000000000000000000000000000000000000000000000000000000000000000000000000000000000000000000000000000000000000000000000000000000000000708000000000000000000000000000000000000000000000000000000000000008000000000000000000000000000000000000000000000000000000000000000020000000000000000000000004200000000000000000000000000000000000006000000000000000000000000833589fcd6edb6e08f4c7c32d4f71b54bda02913000000000000000000000000d0b53d9277642d899df5c87a3966a349a798f22400000000000000000000000000000000000000000000000000000000000000000000000000000000000000004200000000000000000000000000000000000006000000000000000000000000d9aaec86b65d86f6a7b5b1b0c42ffa531710b6ca0000000000000000000000004c36388be6f416a29c8d8eee81c771ce6be14b180000000000000000000000000000000000000000000000000000000000000000",
        "nonce": "0x2",
        "accessList": []
      },
      "additionalContracts": [
        {
          "transactionType": "CREATE",
          "address": "0x6B99b2E868B6E3B8b259E296c4c6aBffbB1AaB94",
          "initCode": "0x602c3d8160093d39f33d3d3d3d363d3d37363d73280064ab5f49f9f61ba9ed03a244773230bee1955af43d3d93803e602a57fd5bf3"
        }
      ],
      "isFixedGasLimit": false
    }
  ],
  "receipts": [],
  "libraries": [],
  "pending": [
    "0x3e649864bfa69c85894f079e58a78aece194228768a730b6c0bde9b100430178"
  ],
  "returns": {
    "defaultOracle": {
      "internal_type": "contract UniV3OracleL2Impl",
      "value": "0x6B99b2E868B6E3B8b259E296c4c6aBffbB1AaB94"
    }
  },
  "timestamp": 1702348919,
  "chain": 8453,
  "multi": false,
  "commit": "2c2f32f"
}