{
  "transactions": [
    {
      "hash": "0x3bc0733592e8b3237bb3107a83c59e5845bb48be152728e74355e46bff770e86",
      "transactionType": "CALL",
      "contractName": null,
      "contractAddress": "0x498f316fEB85a250fdC64B859a130515491EC888",
      "function": "createUniV3Oracle((address,bool,uint32,((address,address),(address,uint32))[]))",
      "arguments": [
        "(0x0000000000000000000000000000000000000000, false, 1800, [((0x7ceB23fD6bC0adD59E62ac25578270cFf1b9f619, 0x2791Bca1f2de4661ED88A30C99A7a9449Aa84174), (0x45dDa9cb7c25131DF268515131f647d726f50608, 0)), ((0x7ceB23fD6bC0adD59E62ac25578270cFf1b9f619, 0x1BFD67037B42Cf73acF2047067bd4F2C47D9BfD6), (0x50eaEDB835021E4A108B7290636d62E9765cc6d7, 0)), ((0x7ceB23fD6bC0adD59E62ac25578270cFf1b9f619, 0x0d500B1d8E8eF31E21C99d1Db9A6444d3ADf1270), (0x167384319B41F7094e62f7506409Eb38079AbfF8, 0)), ((0x2791Bca1f2de4661ED88A30C99A7a9449Aa84174, 0x0d500B1d8E8eF31E21C99d1Db9A6444d3ADf1270), (0xA374094527e1673A86dE625aa59517c5dE346d32, 0)), ((0x53E0bca35eC356BD5ddDFebbD1Fc0fD03FaBad39, 0x0d500B1d8E8eF31E21C99d1Db9A6444d3ADf1270), (0x0A28C2F5E0E8463E047C203F00F649812aE67E4f, 0)), ((0x2791Bca1f2de4661ED88A30C99A7a9449Aa84174, 0xc2132D05D31c914a87C6611C10748AEb04B58e8F), (0xDaC8A8E6DBf8c690ec6815e0fF03491B2770255D, 0)), ((0xc2132D05D31c914a87C6611C10748AEb04B58e8F, 0x0d500B1d8E8eF31E21C99d1Db9A6444d3ADf1270), (0x9B08288C3Be4F62bbf8d1C20Ac9C5e6f9467d8B7, 0)), ((0x2791Bca1f2de4661ED88A30C99A7a9449Aa84174, 0x53E0bca35eC356BD5ddDFebbD1Fc0fD03FaBad39), (0x94Ab9E4553fFb839431E37CC79ba8905f45BfBeA, 0)), ((0x2791Bca1f2de4661ED88A30C99A7a9449Aa84174, 0x1BFD67037B42Cf73acF2047067bd4F2C47D9BfD6), (0x847b64f9d3A95e977D157866447a5C0A5dFa0Ee5, 0)), ((0x7ceB23fD6bC0adD59E62ac25578270cFf1b9f619, 0x53E0bca35eC356BD5ddDFebbD1Fc0fD03FaBad39), (0x3e31AB7f37c048FC6574189135D108df80F0ea26, 0))])"
      ],
      "transaction": {
        "type": "0x02",
        "from": "0x8cc55811d2610ece1997658bef35b290e55c9186",
        "to": "0x498f316feb85a250fdc64b859a130515491ec888",
        "gas": "0x7c2a4",
        "value": "0x0",
        "data": "0xdd3ff6e000000000000000000000000000000000000000000000000000000000000000200000000000000000000000000000000000000000000000000000000000000000000000000000000000000000000000000000000000000000000000000000000000000000000000000000000000000000000000000000000000000000000007080000000000000000000000000000000000000000000000000000000000000080000000000000000000000000000000000000000000000000000000000000000a0000000000000000000000007ceb23fd6bc0add59e62ac25578270cff1b9f6190000000000000000000000002791bca1f2de4661ed88a30c99a7a9449aa8417400000000000000000000000045dda9cb7c25131df268515131f647d726f5060800000000000000000000000000000000000000000000000000000000000000000000000000000000000000007ceb23fd6bc0add59e62ac25578270cff1b9f6190000000000000000000000001bfd67037b42cf73acf2047067bd4f2c47d9bfd600000000000000000000000050eaedb835021e4a108b7290636d62e9765cc6d700000000000000000000000000000000000000000000000000000000000000000000000000000000000000007ceb23fd6bc0add59e62ac25578270cff1b9f6190000000000000000000000000d500b1d8e8ef31e21c99d1db9a6444d3adf1270000000000000000000000000167384319b41f7094e62f7506409eb38079abff800000000000000000000000000000000000000000000000000000000000000000000000000000000000000002791bca1f2de4661ed88a30c99a7a9449aa841740000000000000000000000000d500b1d8e8ef31e21c99d1db9a6444d3adf1270000000000000000000000000a374094527e1673a86de625aa59517c5de346d32000000000000000000000000000000000000000000000000000000000000000000000000000000000000000053e0bca35ec356bd5dddfebbd1fc0fd03fabad390000000000000000000000000d500b1d8e8ef31e21c99d1db9a6444d3adf12700000000000000000000000000a28c2f5e0e8463e047c203f00f649812ae67e4f00000000000000000000000000000000000000000000000000000000000000000000000000000000000000002791bca1f2de4661ed88a30c99a7a9449aa84174000000000000000000000000c2132d05d31c914a87c6611c10748aeb04b58e8f000000000000000000000000dac8a8e6dbf8c690ec6815e0ff03491b2770255d0000000000000000000000000000000000000000000000000000000000000000000000000000000000000000c2132d05d31c914a87c6611c10748aeb04b58e8f0000000000000000000000000d500b1d8e8ef31e21c99d1db9a6444d3adf12700000000000000000000000009b08288c3be4f62bbf8d1c20ac9c5e6f9467d8b700000000000000000000000000000000000000000000000000000000000000000000000000000000000000002791bca1f2de4661ed88a30c99a7a9449aa8417400000000000000000000000053e0bca35ec356bd5dddfebbd1fc0fd03fabad3900000000000000000000000094ab9e4553ffb839431e37cc79ba8905f45bfbea00000000000000000000000000000000000000000000000000000000000000000000000000000000000000002791bca1f2de4661ed88a30c99a7a9449aa841740000000000000000000000001bfd67037b42cf73acf2047067bd4f2c47d9bfd6000000000000000000000000847b64f9d3a95e977d157866447a5c0a5dfa0ee500000000000000000000000000000000000000000000000000000000000000000000000000000000000000007ceb23fd6bc0add59e62ac25578270cff1b9f61900000000000000000000000053e0bca35ec356bd5dddfebbd1fc0fd03fabad390000000000000000000000003e31ab7f37c048fc6574189135d108df80f0ea260000000000000000000000000000000000000000000000000000000000000000",
        "nonce": "0x1",
        "accessList": []
      },
      "additionalContracts": [
        {
          "transactionType": "CREATE",
          "address": "0x8DeF6ed1f27A02b26024C78aDcE2957d23DFD672",
          "initCode": "0x602c3d8160093d39f33d3d3d3d363d3d37363d736e65c4be1dcd33bdddd99f42dc45b2658fe9ad915af43d3d93803e602a57fd5bf3"
        }
      ],
      "isFixedGasLimit": false
    }
  ],
  "receipts": [
    {
      "transactionHash": "0x3bc0733592e8b3237bb3107a83c59e5845bb48be152728e74355e46bff770e86",
      "transactionIndex": "0x44",
      "blockHash": "0x9a173c236914586993cb9f6ac15d8e8fdc33021bd1761ac5f35d88e1b74b69e5",
      "blockNumber": "0x30bae98",
      "from": "0x8cC55811d2610ece1997658Bef35B290e55c9186",
      "to": "0x498f316fEB85a250fdC64B859a130515491EC888",
      "cumulativeGasUsed": "0x6b598f",
      "gasUsed": "0x59e50",
      "contractAddress": null,
      "logs": [
        {
          "address": "0x8DeF6ed1f27A02b26024C78aDcE2957d23DFD672",
          "topics": [
            "0x8be0079c531659141344cd1fd0a4f28419497f9722a3daafe3b4186f6b6457e0",
            "0x0000000000000000000000000000000000000000000000000000000000000000",
            "0x0000000000000000000000000000000000000000000000000000000000000000"
          ],
          "data": "0x",
          "blockHash": "0x9a173c236914586993cb9f6ac15d8e8fdc33021bd1761ac5f35d88e1b74b69e5",
          "blockNumber": "0x30bae98",
          "transactionHash": "0x3bc0733592e8b3237bb3107a83c59e5845bb48be152728e74355e46bff770e86",
          "transactionIndex": "0x44",
          "logIndex": "0xba",
          "removed": false
        },
        {
          "address": "0x498f316fEB85a250fdC64B859a130515491EC888",
          "topics": [
            "0x6ab60cca05d81b8aa58b9480c65308d33e6f8d77f7738c3162f79e06b716a372",
            "0x0000000000000000000000008def6ed1f27a02b26024c78adce2957d23dfd672"
          ],
          "data": "0x00000000000000000000000000000000000000000000000000000000000000200000000000000000000000000000000000000000000000000000000000000000000000000000000000000000000000000000000000000000000000000000000000000000000000000000000000000000000000000000000000000000000007080000000000000000000000000000000000000000000000000000000000000080000000000000000000000000000000000000000000000000000000000000000a0000000000000000000000007ceb23fd6bc0add59e62ac25578270cff1b9f6190000000000000000000000002791bca1f2de4661ed88a30c99a7a9449aa8417400000000000000000000000045dda9cb7c25131df268515131f647d726f5060800000000000000000000000000000000000000000000000000000000000000000000000000000000000000007ceb23fd6bc0add59e62ac25578270cff1b9f6190000000000000000000000001bfd67037b42cf73acf2047067bd4f2c47d9bfd600000000000000000000000050eaedb835021e4a108b7290636d62e9765cc6d700000000000000000000000000000000000000000000000000000000000000000000000000000000000000007ceb23fd6bc0add59e62ac25578270cff1b9f6190000000000000000000000000d500b1d8e8ef31e21c99d1db9a6444d3adf1270000000000000000000000000167384319b41f7094e62f7506409eb38079abff800000000000000000000000000000000000000000000000000000000000000000000000000000000000000002791bca1f2de4661ed88a30c99a7a9449aa841740000000000000000000000000d500b1d8e8ef31e21c99d1db9a6444d3adf1270000000000000000000000000a374094527e1673a86de625aa59517c5de346d32000000000000000000000000000000000000000000000000000000000000000000000000000000000000000053e0bca35ec356bd5dddfebbd1fc0fd03fabad390000000000000000000000000d500b1d8e8ef31e21c99d1db9a6444d3adf12700000000000000000000000000a28c2f5e0e8463e047c203f00f649812ae67e4f00000000000000000000000000000000000000000000000000000000000000000000000000000000000000002791bca1f2de4661ed88a30c99a7a9449aa84174000000000000000000000000c2132d05d31c914a87c6611c10748aeb04b58e8f000000000000000000000000dac8a8e6dbf8c690ec6815e0ff03491b2770255d0000000000000000000000000000000000000000000000000000000000000000000000000000000000000000c2132d05d31c914a87c6611c10748aeb04b58e8f0000000000000000000000000d500b1d8e8ef31e21c99d1db9a6444d3adf12700000000000000000000000009b08288c3be4f62bbf8d1c20ac9c5e6f9467d8b700000000000000000000000000000000000000000000000000000000000000000000000000000000000000002791bca1f2de4661ed88a30c99a7a9449aa8417400000000000000000000000053e0bca35ec356bd5dddfebbd1fc0fd03fabad3900000000000000000000000094ab9e4553ffb839431e37cc79ba8905f45bfbea00000000000000000000000000000000000000000000000000000000000000000000000000000000000000002791bca1f2de4661ed88a30c99a7a9449aa841740000000000000000000000001bfd67037b42cf73acf2047067bd4f2c47d9bfd6000000000000000000000000847b64f9d3a95e977d157866447a5c0a5dfa0ee500000000000000000000000000000000000000000000000000000000000000000000000000000000000000007ceb23fd6bc0add59e62ac25578270cff1b9f61900000000000000000000000053e0bca35ec356bd5dddfebbd1fc0fd03fabad390000000000000000000000003e31ab7f37c048fc6574189135d108df80f0ea260000000000000000000000000000000000000000000000000000000000000000",
          "blockHash": "0x9a173c236914586993cb9f6ac15d8e8fdc33021bd1761ac5f35d88e1b74b69e5",
          "blockNumber": "0x30bae98",
          "transactionHash": "0x3bc0733592e8b3237bb3107a83c59e5845bb48be152728e74355e46bff770e86",
          "transactionIndex": "0x44",
          "logIndex": "0xbb",
          "removed": false
        },
        {
          "address": "0x0000000000000000000000000000000000001010",
          "topics": [
            "0x4dfe1bbbcf077ddc3e01291eea2d5c70c2b422b415d95645b9adcfd678cb1d63",
            "0x0000000000000000000000000000000000000000000000000000000000001010",
            "0x0000000000000000000000008cc55811d2610ece1997658bef35b290e55c9186",
            "0x0000000000000000000000009ead03f7136fc6b4bdb0780b00a1c14ae5a8b6d0"
          ],
          "data": "0x00000000000000000000000000000000000000000000000000273e7f2b4dc000000000000000000000000000000000000000000000000002257a1366b31dd1c4000000000000000000000000000000000000000000000451e94d997ee34bf1830000000000000000000000000000000000000000000000022552d4e787d011c4000000000000000000000000000000000000000000000451e974d7fe0e99b183",
          "blockHash": "0x9a173c236914586993cb9f6ac15d8e8fdc33021bd1761ac5f35d88e1b74b69e5",
          "blockNumber": "0x30bae98",
          "transactionHash": "0x3bc0733592e8b3237bb3107a83c59e5845bb48be152728e74355e46bff770e86",
          "transactionIndex": "0x44",
          "logIndex": "0xbc",
          "removed": false
        }
      ],
      "status": "0x1",
      "logsBloom": "0x00000002080000000002008000000000000000001000000000800000000000000100000000000000000000000000000000008000000000000000000000000000000000000200000000000000000000800001000000000000000100000010000000000000020000000000000000000800000000020000040080000000000000400040000000040000000000000000000000000000000000000000000000000000200000000000000000000000000000002000000000200000000000000000004000000000000000000001040000000000000000000000400000120000000020000000000000000000000000000000000000000000000000000000008000100000",
      "type": "0x2",
      "effectiveGasPrice": "0x1b32b8f001"
    }
  ],
  "libraries": [],
  "pending": [],
  "returns": {
    "defaultOracle": {
      "internal_type": "contract UniV3OracleImpl",
      "value": "0x8DeF6ed1f27A02b26024C78aDcE2957d23DFD672"
    }
  },
  "timestamp": 1702502130,
  "chain": 137,
  "multi": false,
  "commit": "4abed05"
}