{
  "transactions": [
    {
      "hash": "0x56c88b72f1e3c991806c4ab62fef21481e35712f6683f3e596a047f9cf046cef",
      "transactionType": "CALL",
      "contractName": null,
      "contractAddress": "0x73b3B74865eE1dc996Ac8EbD31C45CFb4f38e39F",
      "function": "createUniV3Oracle((address,bool,uint32,((address,address),(address,uint32))[]))",
      "arguments": [
        "(0x0000000000000000000000000000000000000000, false, 1800, [((0x4200000000000000000000000000000000000006, 0x4200000000000000000000000000000000000042), (0x68F5C0A2DE713a54991E01858Fd27a3832401849, 0)), ((0x4200000000000000000000000000000000000006, 0x7F5c764cBc14f9669B88837ca1490cCa17c31607), (0x85149247691df622eaF1a8Bd0CaFd40BC45154a9, 0)), ((0x4200000000000000000000000000000000000006, 0x1F32b1c2345538c0c6f582fCB022739c4A194Ebb), (0x04F6C85A1B00F6D9B75f91FD23835974Cc07E65c, 0)), ((0x4200000000000000000000000000000000000006, 0x68f180fcCe6836688e9084f035309E29Bf0A2095), (0x73B14a78a0D396C521f954532d43fd5fFe385216, 0)), ((0x4200000000000000000000000000000000000006, 0xDA10009cBd5D07dd0CeCc66161FC93D7c9000da1), (0x03aF20bDAaFfB4cC0A521796a223f7D85e2aAc31, 0)), ((0x7F5c764cBc14f9669B88837ca1490cCa17c31607, 0x4200000000000000000000000000000000000042), (0x1C3140aB59d6cAf9fa7459C6f83D4B52ba881d36, 0))])"
      ],
      "transaction": {
        "type": "0x02",
        "from": "0x8cc55811d2610ece1997658bef35b290e55c9186",
        "to": "0x73b3b74865ee1dc996ac8ebd31c45cfb4f38e39f",
        "gas": "0x56e78",
        "value": "0x0",
        "data": "0xdd3ff6e00000000000000000000000000000000000000000000000000000000000000020000000000000000000000000000000000000000000000000000000000000000000000000000000000000000000000000000000000000000000000000000000000000000000000000000000000000000000000000000000000000000000000708000000000000000000000000000000000000000000000000000000000000008000000000000000000000000000000000000000000000000000000000000000060000000000000000000000004200000000000000000000000000000000000006000000000000000000000000420000000000000000000000000000000000004200000000000000000000000068f5c0a2de713a54991e01858fd27a3832401849000000000000000000000000000000000000000000000000000000000000000000000000000000000000000042000000000000000000000000000000000000060000000000000000000000007f5c764cbc14f9669b88837ca1490cca17c3160700000000000000000000000085149247691df622eaf1a8bd0cafd40bc45154a9000000000000000000000000000000000000000000000000000000000000000000000000000000000000000042000000000000000000000000000000000000060000000000000000000000001f32b1c2345538c0c6f582fcb022739c4a194ebb00000000000000000000000004f6c85a1b00f6d9b75f91fd23835974cc07e65c0000000000000000000000000000000000000000000000000000000000000000000000000000000000000000420000000000000000000000000000000000000600000000000000000000000068f180fcce6836688e9084f035309e29bf0a209500000000000000000000000073b14a78a0d396c521f954532d43fd5ffe38521600000000000000000000000000000000000000000000000000000000000000000000000000000000000000004200000000000000000000000000000000000006000000000000000000000000da10009cbd5d07dd0cecc66161fc93d7c9000da100000000000000000000000003af20bdaaffb4cc0a521796a223f7d85e2aac3100000000000000000000000000000000000000000000000000000000000000000000000000000000000000007f5c764cbc14f9669b88837ca1490cca17c3160700000000000000000000000042000000000000000000000000000000000000420000000000000000000000001c3140ab59d6caf9fa7459c6f83d4b52ba881d360000000000000000000000000000000000000000000000000000000000000000",
        "nonce": "0x4",
        "accessList": []
      },
      "additionalContracts": [
        {
          "transactionType": "CREATE",
          "address": "0x6D55930014eCAF994B9D71a9917364f91CB20345",
          "initCode": "0x602c3d8160093d39f33d3d3d3d363d3d37363d73c58f24010facb558fd9b045650077872b2ea6b8c5af43d3d93803e602a57fd5bf3"
        }
      ],
      "isFixedGasLimit": false
    }
  ],
  "receipts": [
    {
      "transactionHash": "0x56c88b72f1e3c991806c4ab62fef21481e35712f6683f3e596a047f9cf046cef",
      "transactionIndex": "0x4",
      "blockHash": "0x8b4707e352e71f3d50eb66cf9cf4ecbbe6b61fa0dd97f02766798ba72d5efdcb",
      "blockNumber": "0x6c2a5ac",
      "from": "0x8cC55811d2610ece1997658Bef35B290e55c9186",
      "to": "0x73b3B74865eE1dc996Ac8EbD31C45CFb4f38e39F",
      "cumulativeGasUsed": "0x87f48",
      "gasUsed": "0x3eeae",
      "contractAddress": null,
      "logs": [
        {
          "address": "0x6D55930014eCAF994B9D71a9917364f91CB20345",
          "topics": [
            "0x8be0079c531659141344cd1fd0a4f28419497f9722a3daafe3b4186f6b6457e0",
            "0x0000000000000000000000000000000000000000000000000000000000000000",
            "0x0000000000000000000000000000000000000000000000000000000000000000"
          ],
          "data": "0x",
          "blockHash": "0x8b4707e352e71f3d50eb66cf9cf4ecbbe6b61fa0dd97f02766798ba72d5efdcb",
          "blockNumber": "0x6c2a5ac",
          "transactionHash": "0x56c88b72f1e3c991806c4ab62fef21481e35712f6683f3e596a047f9cf046cef",
          "transactionIndex": "0x4",
          "logIndex": "0x5",
          "removed": false
        },
        {
          "address": "0x73b3B74865eE1dc996Ac8EbD31C45CFb4f38e39F",
          "topics": [
            "0x6ab60cca05d81b8aa58b9480c65308d33e6f8d77f7738c3162f79e06b716a372",
            "0x0000000000000000000000006d55930014ecaf994b9d71a9917364f91cb20345"
          ],
          "data": "0x0000000000000000000000000000000000000000000000000000000000000020000000000000000000000000000000000000000000000000000000000000000000000000000000000000000000000000000000000000000000000000000000000000000000000000000000000000000000000000000000000000000000000708000000000000000000000000000000000000000000000000000000000000008000000000000000000000000000000000000000000000000000000000000000060000000000000000000000004200000000000000000000000000000000000006000000000000000000000000420000000000000000000000000000000000004200000000000000000000000068f5c0a2de713a54991e01858fd27a3832401849000000000000000000000000000000000000000000000000000000000000000000000000000000000000000042000000000000000000000000000000000000060000000000000000000000007f5c764cbc14f9669b88837ca1490cca17c3160700000000000000000000000085149247691df622eaf1a8bd0cafd40bc45154a9000000000000000000000000000000000000000000000000000000000000000000000000000000000000000042000000000000000000000000000000000000060000000000000000000000001f32b1c2345538c0c6f582fcb022739c4a194ebb00000000000000000000000004f6c85a1b00f6d9b75f91fd23835974cc07e65c0000000000000000000000000000000000000000000000000000000000000000000000000000000000000000420000000000000000000000000000000000000600000000000000000000000068f180fcce6836688e9084f035309e29bf0a209500000000000000000000000073b14a78a0d396c521f954532d43fd5ffe38521600000000000000000000000000000000000000000000000000000000000000000000000000000000000000004200000000000000000000000000000000000006000000000000000000000000da10009cbd5d07dd0cecc66161fc93d7c9000da100000000000000000000000003af20bdaaffb4cc0a521796a223f7d85e2aac3100000000000000000000000000000000000000000000000000000000000000000000000000000000000000007f5c764cbc14f9669b88837ca1490cca17c3160700000000000000000000000042000000000000000000000000000000000000420000000000000000000000001c3140ab59d6caf9fa7459c6f83d4b52ba881d360000000000000000000000000000000000000000000000000000000000000000",
          "blockHash": "0x8b4707e352e71f3d50eb66cf9cf4ecbbe6b61fa0dd97f02766798ba72d5efdcb",
          "blockNumber": "0x6c2a5ac",
          "transactionHash": "0x56c88b72f1e3c991806c4ab62fef21481e35712f6683f3e596a047f9cf046cef",
          "transactionIndex": "0x4",
          "logIndex": "0x6",
          "removed": false
        }
      ],
      "status": "0x1",
      "logsBloom": "0x00000000000000000000000000000000004080000000000000800000000000000000000000000000000000000000000040000000000000000000000000000000000000000200000000000001000000000001000000000000000000000010000000004000020000000000000000000800000000020000000000000000000000400000000000000000000000000000000080000000000000000000000000000000000000000000000000000000000000000000000000000000000400000000000000000000000000000000000000000000010000000000000000002000000020000000000000000000000000000000000000000000000000000000000000000000",
      "type": "0x2",
      "effectiveGasPrice": "0xadd5ad"
    }
  ],
  "libraries": [],
  "pending": [],
  "returns": {
    "defaultOracle": {
      "internal_type": "contract UniV3OracleL2Impl",
      "value": "0x6D55930014eCAF994B9D71a9917364f91CB20345"
    }
  },
  "timestamp": 1702438166,
  "chain": 10,
  "multi": false,
  "commit": "15390a9"
}